Archive member included because of file (symbol)

c:/freescale/kds_v3/toolchain/bin/../lib/gcc/arm-none-eabi/4.8.4/../../../../arm-none-eabi/lib/armv7e-m/fpu\libg_s.a(lib_a-errno.o)
                              ./utilities/fsl_sbrk.o (__errno)
c:/freescale/kds_v3/toolchain/bin/../lib/gcc/arm-none-eabi/4.8.4/../../../../arm-none-eabi/lib/armv7e-m/fpu\libg_s.a(lib_a-exit.o)
                              c:/freescale/kds_v3/toolchain/bin/../lib/gcc/arm-none-eabi/4.8.4/../../../../arm-none-eabi/lib/armv7e-m/fpu/crt0.o (exit)
c:/freescale/kds_v3/toolchain/bin/../lib/gcc/arm-none-eabi/4.8.4/../../../../arm-none-eabi/lib/armv7e-m/fpu\libg_s.a(lib_a-impure.o)
                              c:/freescale/kds_v3/toolchain/bin/../lib/gcc/arm-none-eabi/4.8.4/../../../../arm-none-eabi/lib/armv7e-m/fpu\libg_s.a(lib_a-exit.o) (_global_impure_ptr)
c:/freescale/kds_v3/toolchain/bin/../lib/gcc/arm-none-eabi/4.8.4/../../../../arm-none-eabi/lib/armv7e-m/fpu\libg_s.a(lib_a-init.o)
                              c:/freescale/kds_v3/toolchain/bin/../lib/gcc/arm-none-eabi/4.8.4/../../../../arm-none-eabi/lib/armv7e-m/fpu/crt0.o (__libc_init_array)
c:/freescale/kds_v3/toolchain/bin/../lib/gcc/arm-none-eabi/4.8.4/../../../../arm-none-eabi/lib/armv7e-m/fpu\libg_s.a(lib_a-memcpy-stub.o)
                              ./freertos/queue.o (memcpy)
c:/freescale/kds_v3/toolchain/bin/../lib/gcc/arm-none-eabi/4.8.4/../../../../arm-none-eabi/lib/armv7e-m/fpu\libg_s.a(lib_a-memset.o)
                              c:/freescale/kds_v3/toolchain/bin/../lib/gcc/arm-none-eabi/4.8.4/../../../../arm-none-eabi/lib/armv7e-m/fpu/crt0.o (memset)
c:/freescale/kds_v3/toolchain/bin/../lib/gcc/arm-none-eabi/4.8.4/../../../../arm-none-eabi/lib/armv7e-m/fpu\libg_s.a(lib_a-strlen.o)
                              ./utilities/fsl_debug_console.o (strlen)
c:/freescale/kds_v3/toolchain/bin/../lib/gcc/arm-none-eabi/4.8.4/../../../../arm-none-eabi/lib/armv7e-m/fpu\libnosys.a(_exit.o)
                              c:/freescale/kds_v3/toolchain/bin/../lib/gcc/arm-none-eabi/4.8.4/../../../../arm-none-eabi/lib/armv7e-m/fpu\libg_s.a(lib_a-exit.o) (_exit)

Discarded input sections

 .text          0x00000000        0x0 c:/freescale/kds_v3/toolchain/bin/../lib/gcc/arm-none-eabi/4.8.4/armv7e-m/fpu/crti.o
 .data          0x00000000        0x0 c:/freescale/kds_v3/toolchain/bin/../lib/gcc/arm-none-eabi/4.8.4/armv7e-m/fpu/crti.o
 .bss           0x00000000        0x0 c:/freescale/kds_v3/toolchain/bin/../lib/gcc/arm-none-eabi/4.8.4/armv7e-m/fpu/crti.o
 .data          0x00000000        0x4 c:/freescale/kds_v3/toolchain/bin/../lib/gcc/arm-none-eabi/4.8.4/armv7e-m/fpu/crtbegin.o
 .data          0x00000000        0x0 c:/freescale/kds_v3/toolchain/bin/../lib/gcc/arm-none-eabi/4.8.4/../../../../arm-none-eabi/lib/armv7e-m/fpu/crt0.o
 .bss           0x00000000        0x0 c:/freescale/kds_v3/toolchain/bin/../lib/gcc/arm-none-eabi/4.8.4/../../../../arm-none-eabi/lib/armv7e-m/fpu/crt0.o
 .ARM.extab     0x00000000        0x0 c:/freescale/kds_v3/toolchain/bin/../lib/gcc/arm-none-eabi/4.8.4/../../../../arm-none-eabi/lib/armv7e-m/fpu/crt0.o
 .text          0x00000000        0x0 ./utilities/fsl_debug_console.o
 .data          0x00000000        0x0 ./utilities/fsl_debug_console.o
 .bss           0x00000000        0x0 ./utilities/fsl_debug_console.o
 .text.DbgConsole_Deinit
                0x00000000       0x5c ./utilities/fsl_debug_console.o
 .text.DbgConsole_Scanf
                0x00000000       0xb8 ./utilities/fsl_debug_console.o
 .text.DbgConsole_Getchar
                0x00000000       0x44 ./utilities/fsl_debug_console.o
 .text.DbgConsole_ScanIgnoreWhiteSpace
                0x00000000       0x60 ./utilities/fsl_debug_console.o
Memory Configuration

Name             Origin             Length             Attributes
m_interrupts     0x00000000         0x00000400         xr
m_flash_config   0x00000400         0x00000010         xr
m_text           0x00000410         0x001ffbf0         xr
m_data           0x1fff0000         0x00010000         rw
m_data_2         0x20000000         0x00030000         rw
*default*        0x00000000         0xffffffff

Linker script and memory map

LOAD c:/freescale/kds_v3/toolchain/bin/../lib/gcc/arm-none-eabi/4.8.4/armv7e-m/fpu/crti.o
LOAD c:/freescale/kds_v3/toolchain/bin/../lib/gcc/arm-none-eabi/4.8.4/armv7e-m/fpu/crtbegin.o
LOAD c:/freescale/kds_v3/toolchain/bin/../lib/gcc/arm-none-eabi/4.8.4/../../../../arm-none-eabi/lib/armv7e-m/fpu/crt0.o
START GROUP
LOAD ./utilities/fsl_debug_console.o
LOAD ./utilities/fsl_sbrk.o
LOAD ./startup/startup_MK66F18.o
LOAD ./startup/system_MK66F18.o
LOAD ./source/freertos_dspi.o
LOAD ./freertos/portable/fsl_tickless_systick.o
LOAD ./freertos/portable/port.o
LOAD ./freertos/croutine.o
LOAD ./freertos/event_groups.o
LOAD ./freertos/heap_4.o
LOAD ./freertos/list.o
LOAD ./freertos/queue.o
LOAD ./freertos/tasks.o
LOAD ./freertos/timers.o
LOAD ./drivers/freertos/fsl_dspi_freertos.o
LOAD ./drivers/fsl_clock.o
LOAD ./drivers/fsl_common.o
LOAD ./drivers/fsl_dspi.o
LOAD ./drivers/fsl_flash.o
LOAD ./drivers/fsl_gpio.o
LOAD ./drivers/fsl_lpuart.o
LOAD ./drivers/fsl_smc.o
LOAD ./drivers/fsl_uart.o
LOAD ./board/board.o
LOAD ./board/clock_config.o
LOAD ./board/pin_mux.o
LOAD c:/freescale/kds_v3/toolchain/bin/../lib/gcc/arm-none-eabi/4.8.4/../../../../arm-none-eabi/lib/armv7e-m/fpu\libg_s.a
LOAD c:/freescale/kds_v3/toolchain/bin/../lib/gcc/arm-none-eabi/4.8.4/armv7e-m/fpu\libgcc.a
LOAD c:/freescale/kds_v3/toolchain/bin/../lib/gcc/arm-none-eabi/4.8.4/../../../../arm-none-eabi/lib/armv7e-m/fpu\libnosys.a
END GROUP
LOAD c:/freescale/kds_v3/toolchain/bin/../lib/gcc/arm-none-eabi/4.8.4/../../../../arm-none-eabi/lib/armv7e-m/fpu\libstdc++_s.a
LOAD c:/freescale/kds_v3/toolchain/bin/../lib/gcc/arm-none-eabi/4.8.4/../../../../arm-none-eabi/lib/armv7e-m/fpu\libm.a
START GROUP
LOAD c:/freescale/kds_v3/toolchain/bin/../lib/gcc/arm-none-eabi/4.8.4/armv7e-m/fpu\libgcc.a
LOAD c:/freescale/kds_v3/toolchain/bin/../lib/gcc/arm-none-eabi/4.8.4/../../../../arm-none-eabi/lib/armv7e-m/fpu\libg_s.a
LOAD c:/freescale/kds_v3/toolchain/bin/../lib/gcc/arm-none-eabi/4.8.4/../../../../arm-none-eabi/lib/armv7e-m/fpu\libc_s.a
END GROUP
START GROUP
LOAD c:/freescale/kds_v3/toolchain/bin/../lib/gcc/arm-none-eabi/4.8.4/armv7e-m/fpu\libgcc.a
LOAD c:/freescale/kds_v3/toolchain/bin/../lib/gcc/arm-none-eabi/4.8.4/../../../../arm-none-eabi/lib/armv7e-m/fpu\libc_s.a
END GROUP
LOAD c:/freescale/kds_v3/toolchain/bin/../lib/gcc/arm-none-eabi/4.8.4/armv7e-m/fpu/crtend.o
LOAD c:/freescale/kds_v3/toolchain/bin/../lib/gcc/arm-none-eabi/4.8.4/armv7e-m/fpu/crtn.o
                0x00000400                HEAP_SIZE = DEFINED (__heap_size__)?__heap_size__:0x400
                0x00000400                STACK_SIZE = DEFINED (__stack_size__)?__stack_size__:0x400
                0x00000000                M_VECTOR_RAM_SIZE = DEFINED (__ram_vector_table__)?0x400:0x0

.interrupts     0x00000000      0x400
                0x00000000                __VECTOR_TABLE = .
                0x00000000                . = ALIGN (0x4)
 *(.isr_vector)
 .isr_vector    0x00000000      0x400 ./startup/startup_MK66F18.o
                0x00000000                __isr_vector
                0x00000400                . = ALIGN (0x4)

.flash_config   0x00000400       0x10
                0x00000400                . = ALIGN (0x4)
 *(.FlashConfig)
 .FlashConfig   0x00000400       0x10 ./startup/startup_MK66F18.o
                0x00000410                . = ALIGN (0x4)

.text           0x00000410     0x6558
                0x00000410                . = ALIGN (0x4)
 *(.text)
 .text          0x00000410       0x54 c:/freescale/kds_v3/toolchain/bin/../lib/gcc/arm-none-eabi/4.8.4/armv7e-m/fpu/crtbegin.o
 .text          0x00000464       0x74 c:/freescale/kds_v3/toolchain/bin/../lib/gcc/arm-none-eabi/4.8.4/../../../../arm-none-eabi/lib/armv7e-m/fpu/crt0.o
                0x00000464                _start
                0x00000464                _mainCRTStartup
 .text          0x000004d8      0x214 ./startup/startup_MK66F18.o
                0x000004d8                Reset_Handler
                0x00000538                DMA9_DMA25_DriverIRQHandler
                0x00000538                DebugMon_Handler
                0x00000538                PORTC_IRQHandler
                0x00000538                DMA13_DMA29_DriverIRQHandler
                0x00000538                DMA4_DMA20_DriverIRQHandler
                0x00000538                CMP0_IRQHandler
                0x00000538                Reserved85_IRQHandler
                0x00000538                DMA11_DMA27_DriverIRQHandler
                0x00000538                DMA_Error_DriverIRQHandler
                0x00000538                I2C1_DriverIRQHandler
                0x00000538                ENET_Receive_DriverIRQHandler
                0x00000538                CAN1_DriverIRQHandler
                0x00000538                I2C0_DriverIRQHandler
                0x00000538                MemManage_Handler
                0x00000538                ENET_Transmit_DriverIRQHandler
                0x00000538                USBHS_IRQHandler
                0x00000538                UART1_ERR_DriverIRQHandler
                0x00000538                SDHC_DriverIRQHandler
                0x00000538                WDOG_EWM_IRQHandler
                0x00000538                PIT0_IRQHandler
                0x00000538                DMA7_DMA23_DriverIRQHandler
                0x00000538                DMA15_DMA31_DriverIRQHandler
                0x00000538                I2C3_DriverIRQHandler
                0x00000538                CMP2_IRQHandler
                0x00000538                LLWU_IRQHandler
                0x00000538                I2S0_Tx_DriverIRQHandler
                0x00000538                Reserved84_IRQHandler
                0x00000538                UART4_ERR_DriverIRQHandler
                0x00000538                TSI0_IRQHandler
                0x00000538                DAC0_IRQHandler
                0x00000538                BusFault_Handler
                0x00000538                LPTMR0_IRQHandler
                0x00000538                FTM2_IRQHandler
                0x00000538                DMA14_DMA30_DriverIRQHandler
                0x00000538                DMA5_DMA21_DriverIRQHandler
                0x00000538                ENET_1588_Timer_DriverIRQHandler
                0x00000538                I2C2_DriverIRQHandler
                0x00000538                DMA3_DMA19_DriverIRQHandler
                0x00000538                SWI_IRQHandler
                0x00000538                ADC0_IRQHandler
                0x00000538                UsageFault_Handler
                0x00000538                PORTE_IRQHandler
                0x00000538                CMT_IRQHandler
                0x00000538                FTM3_IRQHandler
                0x00000538                CAN0_DriverIRQHandler
                0x00000538                DMA0_DMA16_DriverIRQHandler
                0x00000538                DefaultISR
                0x00000538                DMA2_DMA18_DriverIRQHandler
                0x00000538                CMP1_IRQHandler
                0x00000538                RNG_IRQHandler
                0x00000538                PORTD_IRQHandler
                0x00000538                PORTB_IRQHandler
                0x00000538                MCM_IRQHandler
                0x00000538                UART2_ERR_DriverIRQHandler
                0x00000538                ADC1_IRQHandler
                0x00000538                DAC1_IRQHandler
                0x00000538                TPM2_IRQHandler
                0x00000538                PIT2_IRQHandler
                0x00000538                PORTA_IRQHandler
                0x00000538                RTC_IRQHandler
                0x00000538                UART3_ERR_DriverIRQHandler
                0x00000538                PDB0_IRQHandler
                0x00000538                FTM0_IRQHandler
                0x00000538                CMP3_IRQHandler
                0x00000538                Reserved71_IRQHandler
                0x00000538                FTM1_IRQHandler
                0x00000538                DMA12_DMA28_DriverIRQHandler
                0x00000538                LVD_LVW_IRQHandler
                0x00000538                PIT3_IRQHandler
                0x00000538                USB0_IRQHandler
                0x00000538                I2S0_Rx_DriverIRQHandler
                0x00000538                Reserved46_IRQHandler
                0x00000538                RTC_Seconds_IRQHandler
                0x00000538                MCG_IRQHandler
                0x00000538                FTFE_IRQHandler
                0x00000538                DMA10_DMA26_DriverIRQHandler
                0x00000538                UART0_ERR_DriverIRQHandler
                0x00000538                PIT1_IRQHandler
                0x00000538                Read_Collision_IRQHandler
                0x00000538                DMA1_DMA17_DriverIRQHandler
                0x00000538                USBHSDCD_IRQHandler
                0x00000538                TPM1_IRQHandler
                0x00000538                ENET_Error_DriverIRQHandler
                0x00000538                USBDCD_IRQHandler
                0x00000538                DMA8_DMA24_DriverIRQHandler
                0x00000538                DMA6_DMA22_DriverIRQHandler
                0x0000053c                NMI_Handler
                0x00000540                HardFault_Handler
                0x00000550                DMA0_DMA16_IRQHandler
                0x00000554                DMA1_DMA17_IRQHandler
                0x00000558                DMA2_DMA18_IRQHandler
                0x0000055c                DMA3_DMA19_IRQHandler
                0x00000560                DMA4_DMA20_IRQHandler
                0x00000564                DMA5_DMA21_IRQHandler
                0x00000568                DMA6_DMA22_IRQHandler
                0x0000056c                DMA7_DMA23_IRQHandler
                0x00000570                DMA8_DMA24_IRQHandler
                0x00000574                DMA9_DMA25_IRQHandler
                0x00000578                DMA10_DMA26_IRQHandler
                0x0000057c                DMA11_DMA27_IRQHandler
                0x00000580                DMA12_DMA28_IRQHandler
                0x00000584                DMA13_DMA29_IRQHandler
                0x00000588                DMA14_DMA30_IRQHandler
                0x0000058c                DMA15_DMA31_IRQHandler
                0x00000590                DMA_Error_IRQHandler
                0x00000594                I2C0_IRQHandler
                0x00000598                I2C1_IRQHandler
                0x0000059c                SPI0_IRQHandler
                0x000005a0                SPI1_IRQHandler
                0x000005a4                I2S0_Tx_IRQHandler
                0x000005a8                I2S0_Rx_IRQHandler
                0x000005ac                UART0_RX_TX_IRQHandler
                0x000005b0                UART0_ERR_IRQHandler
                0x000005b4                UART1_RX_TX_IRQHandler
                0x000005b8                UART1_ERR_IRQHandler
                0x000005bc                UART2_RX_TX_IRQHandler
                0x000005c0                UART2_ERR_IRQHandler
                0x000005c4                UART3_RX_TX_IRQHandler
                0x000005c8                UART3_ERR_IRQHandler
                0x000005cc                SPI2_IRQHandler
                0x000005d0                UART4_RX_TX_IRQHandler
                0x000005d4                UART4_ERR_IRQHandler
                0x000005d8                I2C2_IRQHandler
                0x000005dc                CAN0_ORed_Message_buffer_IRQHandler
                0x000005e0                CAN0_Bus_Off_IRQHandler
                0x000005e4                CAN0_Error_IRQHandler
                0x000005e8                CAN0_Tx_Warning_IRQHandler
                0x000005ec                CAN0_Rx_Warning_IRQHandler
                0x000005f0                CAN0_Wake_Up_IRQHandler
                0x000005f4                SDHC_IRQHandler
                0x000005f8                ENET_1588_Timer_IRQHandler
                0x000005fc                ENET_Transmit_IRQHandler
                0x00000600                ENET_Receive_IRQHandler
                0x00000604                ENET_Error_IRQHandler
                0x00000608                LPUART0_IRQHandler
                0x0000060c                I2C3_IRQHandler
                0x00000610                CAN1_ORed_Message_buffer_IRQHandler
                0x00000614                CAN1_Bus_Off_IRQHandler
                0x00000618                CAN1_Error_IRQHandler
                0x0000061c                CAN1_Tx_Warning_IRQHandler
                0x00000620                CAN1_Rx_Warning_IRQHandler
                0x00000624                CAN1_Wake_Up_IRQHandler
 *(.text*)
 .text.UART_EnableTx
                0x000006ec       0x40 ./utilities/fsl_debug_console.o
 .text.UART_EnableRx
                0x0000072c       0x40 ./utilities/fsl_debug_console.o
 .text.LPUART_EnableTx
                0x0000076c       0x38 ./utilities/fsl_debug_console.o
 .text.LPUART_EnableRx
                0x000007a4       0x38 ./utilities/fsl_debug_console.o
 .text.DbgConsole_Init
                0x000007dc       0xec ./utilities/fsl_debug_console.o
                0x000007dc                DbgConsole_Init
 .text.DbgConsole_Printf
                0x000008c8       0x40 ./utilities/fsl_debug_console.o
                0x000008c8                DbgConsole_Printf
 .text.DbgConsole_Putchar
                0x00000908       0x38 ./utilities/fsl_debug_console.o
                0x00000908                DbgConsole_Putchar
 .text.DbgConsole_PrintfPaddingCharacter
                0x00000940       0x40 ./utilities/fsl_debug_console.o
 .text.DbgConsole_ConvertRadixNumToString
                0x00000980      0x118 ./utilities/fsl_debug_console.o
 .text.DbgConsole_PrintfFormattedData
                0x00000a98      0x36c ./utilities/fsl_debug_console.o
 .text.SystemInit
                0x00000e04       0x3c ./startup/system_MK66F18.o
                0x00000e04                SystemInit
 .text.NVIC_SetPriority
                0x00000e40       0x54 ./source/freertos_dspi.o
 .text.main     0x00000e94       0xa8 ./source/freertos_dspi.o
                0x00000e94                main
 .text.DSPI_SlaveUserCallback
                0x00000f3c       0x48 ./source/freertos_dspi.o
                0x00000f3c                DSPI_SlaveUserCallback
 .text.slave_task
                0x00000f84      0x524 ./source/freertos_dspi.o
 .text.vPortSetupTimerInterrupt
                0x000014a8       0x40 ./freertos/portable/fsl_tickless_systick.o
                0x000014a8                vPortSetupTimerInterrupt
 .text.pxPortInitialiseStack
                0x000014e8       0x68 ./freertos/portable/port.o
                0x000014e8                pxPortInitialiseStack
 .text.prvTaskExitError
                0x00001550       0x3c ./freertos/portable/port.o
 *fill*         0x0000158c        0x4 
 .text.SVC_Handler
                0x00001590       0x30 ./freertos/portable/port.o
                0x00001590                SVC_Handler
 .text.prvPortStartFirstTask
                0x000015c0       0x20 ./freertos/portable/port.o
 .text.xPortStartScheduler
                0x000015e0      0x118 ./freertos/portable/port.o
                0x000015e0                xPortStartScheduler
 .text.vPortEnterCritical
                0x000016f8       0x5c ./freertos/portable/port.o
                0x000016f8                vPortEnterCritical
 .text.vPortExitCritical
                0x00001754       0x4c ./freertos/portable/port.o
                0x00001754                vPortExitCritical
 .text.PendSV_Handler
                0x000017a0       0x70 ./freertos/portable/port.o
                0x000017a0                PendSV_Handler
 .text.SysTick_Handler
                0x00001810       0x40 ./freertos/portable/port.o
                0x00001810                SysTick_Handler
 .text.vPortEnableVFP
                0x00001850       0x14 ./freertos/portable/port.o
 .text.vPortValidateInterruptPriority
                0x00001864       0x78 ./freertos/portable/port.o
                0x00001864                vPortValidateInterruptPriority
 .text.pvPortMalloc
                0x000018dc      0x184 ./freertos/heap_4.o
                0x000018dc                pvPortMalloc
 .text.vPortFree
                0x00001a60       0xb0 ./freertos/heap_4.o
                0x00001a60                vPortFree
 .text.prvHeapInit
                0x00001b10       0xc4 ./freertos/heap_4.o
 .text.prvInsertBlockIntoFreeList
                0x00001bd4       0xb0 ./freertos/heap_4.o
 .text.vListInitialise
                0x00001c84       0x40 ./freertos/list.o
                0x00001c84                vListInitialise
 .text.vListInitialiseItem
                0x00001cc4       0x18 ./freertos/list.o
                0x00001cc4                vListInitialiseItem
 .text.vListInsertEnd
                0x00001cdc       0x48 ./freertos/list.o
                0x00001cdc                vListInsertEnd
 .text.vListInsert
                0x00001d24       0x70 ./freertos/list.o
                0x00001d24                vListInsert
 .text.uxListRemove
                0x00001d94       0x54 ./freertos/list.o
                0x00001d94                uxListRemove
 .text.xQueueGenericReset
                0x00001de8       0xd0 ./freertos/queue.o
                0x00001de8                xQueueGenericReset
 .text.xQueueGenericCreate
                0x00001eb8       0x70 ./freertos/queue.o
                0x00001eb8                xQueueGenericCreate
 .text.prvInitialiseNewQueue
                0x00001f28       0x44 ./freertos/queue.o
 .text.xQueueGenericSend
                0x00001f6c      0x1fc ./freertos/queue.o
                0x00001f6c                xQueueGenericSend
 .text.xQueueGenericSendFromISR
                0x00002168      0x128 ./freertos/queue.o
                0x00002168                xQueueGenericSendFromISR
 .text.xQueueGiveFromISR
                0x00002290      0x114 ./freertos/queue.o
                0x00002290                xQueueGiveFromISR
 .text.xQueueGenericReceive
                0x000023a4      0x22c ./freertos/queue.o
                0x000023a4                xQueueGenericReceive
 .text.prvCopyDataToQueue
                0x000025d0       0xd8 ./freertos/queue.o
 .text.prvCopyDataFromQueue
                0x000026a8       0x4c ./freertos/queue.o
 .text.prvUnlockQueue
                0x000026f4       0xa0 ./freertos/queue.o
 .text.prvIsQueueEmpty
                0x00002794       0x2c ./freertos/queue.o
 .text.prvIsQueueFull
                0x000027c0       0x30 ./freertos/queue.o
 .text.vQueueAddToRegistry
                0x000027f0       0x50 ./freertos/queue.o
                0x000027f0                vQueueAddToRegistry
 .text.vQueueWaitForMessageRestricted
                0x00002840       0x6c ./freertos/queue.o
                0x00002840                vQueueWaitForMessageRestricted
 .text.xTaskCreate
                0x000028ac       0x84 ./freertos/tasks.o
                0x000028ac                xTaskCreate
 .text.prvInitialiseNewTask
                0x00002930      0x130 ./freertos/tasks.o
 .text.prvAddNewTaskToReadyList
                0x00002a60       0xdc ./freertos/tasks.o
 .text.vTaskDelayUntil
                0x00002b3c       0xf4 ./freertos/tasks.o
                0x00002b3c                vTaskDelayUntil
 .text.vTaskSuspend
                0x00002c30      0x10c ./freertos/tasks.o
                0x00002c30                vTaskSuspend
 .text.vTaskStartScheduler
                0x00002d3c       0x94 ./freertos/tasks.o
                0x00002d3c                vTaskStartScheduler
 .text.vTaskSuspendAll
                0x00002dd0       0x1c ./freertos/tasks.o
                0x00002dd0                vTaskSuspendAll
 .text.xTaskResumeAll
                0x00002dec      0x138 ./freertos/tasks.o
                0x00002dec                xTaskResumeAll
 .text.xTaskGetTickCount
                0x00002f24       0x20 ./freertos/tasks.o
                0x00002f24                xTaskGetTickCount
 .text.xTaskIncrementTick
                0x00002f44      0x15c ./freertos/tasks.o
                0x00002f44                xTaskIncrementTick
 .text.vTaskSwitchContext
                0x000030a0       0xb4 ./freertos/tasks.o
                0x000030a0                vTaskSwitchContext
 .text.vTaskPlaceOnEventList
                0x00003154       0x44 ./freertos/tasks.o
                0x00003154                vTaskPlaceOnEventList
 .text.vTaskPlaceOnEventListRestricted
                0x00003198       0x54 ./freertos/tasks.o
                0x00003198                vTaskPlaceOnEventListRestricted
 .text.xTaskRemoveFromEventList
                0x000031ec       0xc4 ./freertos/tasks.o
                0x000031ec                xTaskRemoveFromEventList
 .text.vTaskSetTimeOutState
                0x000032b0       0x44 ./freertos/tasks.o
                0x000032b0                vTaskSetTimeOutState
 .text.xTaskCheckForTimeOut
                0x000032f4       0xbc ./freertos/tasks.o
                0x000032f4                xTaskCheckForTimeOut
 .text.vTaskMissedYield
                0x000033b0       0x18 ./freertos/tasks.o
                0x000033b0                vTaskMissedYield
 .text.prvIdleTask
                0x000033c8       0x30 ./freertos/tasks.o
 .text.prvInitialiseTaskLists
                0x000033f8       0x7c ./freertos/tasks.o
 .text.prvCheckTasksWaitingTermination
                0x00003474       0x74 ./freertos/tasks.o
 .text.prvDeleteTCB
                0x000034e8       0x20 ./freertos/tasks.o
 .text.prvResetNextTaskUnblockTime
                0x00003508       0x48 ./freertos/tasks.o
 .text.xTaskGetSchedulerState
                0x00003550       0x3c ./freertos/tasks.o
                0x00003550                xTaskGetSchedulerState
 .text.vTaskPriorityInherit
                0x0000358c       0xec ./freertos/tasks.o
                0x0000358c                vTaskPriorityInherit
 .text.xTaskPriorityDisinherit
                0x00003678      0x108 ./freertos/tasks.o
                0x00003678                xTaskPriorityDisinherit
 .text.pvTaskIncrementMutexHeldCount
                0x00003780       0x28 ./freertos/tasks.o
                0x00003780                pvTaskIncrementMutexHeldCount
 .text.prvAddCurrentTaskToDelayedList
                0x000037a8       0xc8 ./freertos/tasks.o
 .text.xTimerCreateTimerTask
                0x00003870       0x60 ./freertos/timers.o
                0x00003870                xTimerCreateTimerTask
 .text.xTimerGenericCommand
                0x000038d0       0xa4 ./freertos/timers.o
                0x000038d0                xTimerGenericCommand
 .text.prvProcessExpiredTimer
                0x00003974       0x80 ./freertos/timers.o
 .text.prvTimerTask
                0x000039f4       0x24 ./freertos/timers.o
 .text.prvProcessTimerOrBlockTask
                0x00003a18       0x9c ./freertos/timers.o
 .text.prvGetNextExpireTime
                0x00003ab4       0x48 ./freertos/timers.o
 .text.prvSampleTimeNow
                0x00003afc       0x40 ./freertos/timers.o
 .text.prvInsertTimerInActiveList
                0x00003b3c       0x84 ./freertos/timers.o
 .text.prvProcessReceivedCommands
                0x00003bc0      0x164 ./freertos/timers.o
 .text.prvSwitchTimerLists
                0x00003d24       0xc0 ./freertos/timers.o
 .text.prvCheckForValidListAndQueue
                0x00003de4       0x6c ./freertos/timers.o
 .text.CLOCK_SetEr32kClock
                0x00003e50       0x2c ./drivers/fsl_clock.o
 .text.CLOCK_SetPllFllSelClock
                0x00003e7c       0x58 ./drivers/fsl_clock.o
 .text.OSC_SetExtRefClkConfig
                0x00003ed4       0x40 ./drivers/fsl_clock.o
 .text.OSC_SetCapLoad
                0x00003f14       0x34 ./drivers/fsl_clock.o
 .text.CLOCK_GetMcgExtClkFreq
                0x00003f48       0x8c ./drivers/fsl_clock.o
 .text.CLOCK_GetFllExtRefClkFreq
                0x00003fd4       0xc8 ./drivers/fsl_clock.o
 .text.CLOCK_GetInternalRefClkSelectFreq
                0x0000409c       0x44 ./drivers/fsl_clock.o
 .text.CLOCK_GetFllRefClkFreq
                0x000040e0       0x2c ./drivers/fsl_clock.o
 .text.CLOCK_GetPll0RefFreq
                0x0000410c       0x10 ./drivers/fsl_clock.o
 .text.CLOCK_GetOscRangeFromFreq
                0x0000411c       0x3c ./drivers/fsl_clock.o
 .text.CLOCK_GetCoreSysClkFreq
                0x00004158       0x24 ./drivers/fsl_clock.o
                0x00004158                CLOCK_GetCoreSysClkFreq
 .text.CLOCK_SetSimConfig
                0x0000417c       0x44 ./drivers/fsl_clock.o
                0x0000417c                CLOCK_SetSimConfig
 .text.CLOCK_GetOutClkFreq
                0x000041c0       0x90 ./drivers/fsl_clock.o
                0x000041c0                CLOCK_GetOutClkFreq
 .text.CLOCK_GetFllFreq
                0x00004250       0x74 ./drivers/fsl_clock.o
                0x00004250                CLOCK_GetFllFreq
 .text.CLOCK_GetPll0Freq
                0x000042c4       0x7c ./drivers/fsl_clock.o
                0x000042c4                CLOCK_GetPll0Freq
 .text.CLOCK_GetExtPllFreq
                0x00004340       0x18 ./drivers/fsl_clock.o
                0x00004340                CLOCK_GetExtPllFreq
 .text.CLOCK_SetExternalRefClkConfig
                0x00004358       0x6c ./drivers/fsl_clock.o
                0x00004358                CLOCK_SetExternalRefClkConfig
 .text.CLOCK_SetInternalRefClkConfig
                0x000043c4      0x104 ./drivers/fsl_clock.o
                0x000043c4                CLOCK_SetInternalRefClkConfig
 .text.CLOCK_EnablePll0
                0x000044c8       0x94 ./drivers/fsl_clock.o
                0x000044c8                CLOCK_EnablePll0
 .text.CLOCK_InitOsc0
                0x0000455c       0x8c ./drivers/fsl_clock.o
                0x0000455c                CLOCK_InitOsc0
 .text.CLOCK_SetPbeMode
                0x000045e8       0xf8 ./drivers/fsl_clock.o
                0x000045e8                CLOCK_SetPbeMode
 .text.CLOCK_BootToPeeMode
                0x000046e0       0x78 ./drivers/fsl_clock.o
                0x000046e0                CLOCK_BootToPeeMode
 .text.__assert_func
                0x00004758       0x28 ./drivers/fsl_common.o
                0x00004758                __assert_func
 .text.NVIC_EnableIRQ
                0x00004780       0x30 ./drivers/fsl_dspi.o
 .text.CLOCK_EnableClock
                0x000047b0       0x34 ./drivers/fsl_dspi.o
 .text.EnableIRQ
                0x000047e4       0x28 ./drivers/fsl_dspi.o
 .text.DSPI_Enable
                0x0000480c       0x38 ./drivers/fsl_dspi.o
 .text.DSPI_GetStatusFlags
                0x00004844       0x18 ./drivers/fsl_dspi.o
 .text.DSPI_ClearStatusFlags
                0x0000485c       0x1c ./drivers/fsl_dspi.o
 .text.DSPI_DisableInterrupts
                0x00004878       0x24 ./drivers/fsl_dspi.o
 .text.DSPI_SetMasterSlaveMode
                0x0000489c       0x28 ./drivers/fsl_dspi.o
 .text.DSPI_IsMaster
                0x000048c4       0x1c ./drivers/fsl_dspi.o
 .text.DSPI_StartTransfer
                0x000048e0       0x20 ./drivers/fsl_dspi.o
 .text.DSPI_StopTransfer
                0x00004900       0x20 ./drivers/fsl_dspi.o
 .text.DSPI_FlushFifo
                0x00004920       0x3c ./drivers/fsl_dspi.o
 .text.DSPI_GetInstance
                0x0000495c       0x58 ./drivers/fsl_dspi.o
                0x0000495c                DSPI_GetInstance
 .text.DSPI_SlaveInit
                0x000049b4      0x100 ./drivers/fsl_dspi.o
                0x000049b4                DSPI_SlaveInit
 .text.DSPI_SetOnePcsPolarity
                0x00004ab4       0x4c ./drivers/fsl_dspi.o
 .text.DSPI_EnableInterrupts
                0x00004b00       0x4c ./drivers/fsl_dspi.o
                0x00004b00                DSPI_EnableInterrupts
 .text.DSPI_SlaveTransferCreateHandle
                0x00004b4c       0x60 ./drivers/fsl_dspi.o
                0x00004b4c                DSPI_SlaveTransferCreateHandle
 .text.DSPI_SlaveTransferNonBlocking
                0x00004bac      0x154 ./drivers/fsl_dspi.o
                0x00004bac                DSPI_SlaveTransferNonBlocking
 .text.DSPI_SlaveTransferFillUpTxFifo
                0x00004d00      0x12c ./drivers/fsl_dspi.o
 .text.DSPI_SlaveTransferComplete
                0x00004e2c       0x8c ./drivers/fsl_dspi.o
 .text.DSPI_SlaveTransferHandleIRQ
                0x00004eb8      0x28c ./drivers/fsl_dspi.o
                0x00004eb8                DSPI_SlaveTransferHandleIRQ
 .text.DSPI_CommonIRQHandler
                0x00005144       0x3c ./drivers/fsl_dspi.o
 .text.SPI0_DriverIRQHandler
                0x00005180       0x3c ./drivers/fsl_dspi.o
                0x00005180                SPI0_DriverIRQHandler
 .text.SPI1_DriverIRQHandler
                0x000051bc       0x3c ./drivers/fsl_dspi.o
                0x000051bc                SPI1_DriverIRQHandler
 .text.SPI2_DriverIRQHandler
                0x000051f8       0x3c ./drivers/fsl_dspi.o
                0x000051f8                SPI2_DriverIRQHandler
 .text.CLOCK_EnableClock
                0x00005234       0x34 ./drivers/fsl_lpuart.o
 .text.LPUART_GetInstance
                0x00005268       0x50 ./drivers/fsl_lpuart.o
                0x00005268                LPUART_GetInstance
 .text.LPUART_Init
                0x000052b8      0x23c ./drivers/fsl_lpuart.o
                0x000052b8                LPUART_Init
 .text.LPUART_GetDefaultConfig
                0x000054f4       0x5c ./drivers/fsl_lpuart.o
                0x000054f4                LPUART_GetDefaultConfig
 .text.LPUART_GetStatusFlags
                0x00005550       0x1c ./drivers/fsl_lpuart.o
                0x00005550                LPUART_GetStatusFlags
 .text.LPUART_ClearStatusFlags
                0x0000556c       0x80 ./drivers/fsl_lpuart.o
                0x0000556c                LPUART_ClearStatusFlags
 .text.LPUART_WriteBlocking
                0x000055ec       0x5c ./drivers/fsl_lpuart.o
                0x000055ec                LPUART_WriteBlocking
 .text.LPUART_ReadBlocking
                0x00005648       0xd0 ./drivers/fsl_lpuart.o
                0x00005648                LPUART_ReadBlocking
 .text.LPUART0_DriverIRQHandler
                0x00005718       0x20 ./drivers/fsl_lpuart.o
                0x00005718                LPUART0_DriverIRQHandler
 .text.CLOCK_EnableClock
                0x00005738       0x34 ./drivers/fsl_uart.o
 .text.UART_GetInstance
                0x0000576c       0x60 ./drivers/fsl_uart.o
                0x0000576c                UART_GetInstance
 .text.UART_Init
                0x000057cc      0x2bc ./drivers/fsl_uart.o
                0x000057cc                UART_Init
 .text.UART_GetDefaultConfig
                0x00005a88       0x5c ./drivers/fsl_uart.o
                0x00005a88                UART_GetDefaultConfig
 .text.UART_GetStatusFlags
                0x00005ae4       0x48 ./drivers/fsl_uart.o
                0x00005ae4                UART_GetStatusFlags
 .text.UART_WriteBlocking
                0x00005b2c       0x40 ./drivers/fsl_uart.o
                0x00005b2c                UART_WriteBlocking
 .text.UART_ReadBlocking
                0x00005b6c       0xa4 ./drivers/fsl_uart.o
                0x00005b6c                UART_ReadBlocking
 .text.UART0_DriverIRQHandler
                0x00005c10       0x20 ./drivers/fsl_uart.o
                0x00005c10                UART0_DriverIRQHandler
 .text.UART0_RX_TX_DriverIRQHandler
                0x00005c30        0xc ./drivers/fsl_uart.o
                0x00005c30                UART0_RX_TX_DriverIRQHandler
 .text.UART1_DriverIRQHandler
                0x00005c3c       0x20 ./drivers/fsl_uart.o
                0x00005c3c                UART1_DriverIRQHandler
 .text.UART1_RX_TX_DriverIRQHandler
                0x00005c5c        0xc ./drivers/fsl_uart.o
                0x00005c5c                UART1_RX_TX_DriverIRQHandler
 .text.UART2_DriverIRQHandler
                0x00005c68       0x20 ./drivers/fsl_uart.o
                0x00005c68                UART2_DriverIRQHandler
 .text.UART2_RX_TX_DriverIRQHandler
                0x00005c88        0xc ./drivers/fsl_uart.o
                0x00005c88                UART2_RX_TX_DriverIRQHandler
 .text.UART3_DriverIRQHandler
                0x00005c94       0x20 ./drivers/fsl_uart.o
                0x00005c94                UART3_DriverIRQHandler
 .text.UART3_RX_TX_DriverIRQHandler
                0x00005cb4        0xc ./drivers/fsl_uart.o
                0x00005cb4                UART3_RX_TX_DriverIRQHandler
 .text.UART4_DriverIRQHandler
                0x00005cc0       0x20 ./drivers/fsl_uart.o
                0x00005cc0                UART4_DriverIRQHandler
 .text.UART4_RX_TX_DriverIRQHandler
                0x00005ce0        0xc ./drivers/fsl_uart.o
                0x00005ce0                UART4_RX_TX_DriverIRQHandler
 .text.BOARD_InitDebugConsole
                0x00005cec       0x24 ./board/board.o
                0x00005cec                BOARD_InitDebugConsole
 .text.CLOCK_SetSimSafeDivs
                0x00005d10       0x20 ./board/clock_config.o
 .text.CLOCK_SetXtal0Freq
                0x00005d30       0x1c ./board/clock_config.o
 .text.CLOCK_CONFIG_SetFllExtRefDiv
                0x00005d4c       0x38 ./board/clock_config.o
 .text.BOARD_BootClockRUN
                0x00005d84       0x64 ./board/clock_config.o
                0x00005d84                BOARD_BootClockRUN
 .text.CLOCK_EnableClock
                0x00005de8       0x34 ./board/pin_mux.o
 .text.PORT_SetPinMux
                0x00005e1c       0x38 ./board/pin_mux.o
 .text.BOARD_InitPins
                0x00005e54       0xa4 ./board/pin_mux.o
                0x00005e54                BOARD_InitPins
 .text.exit     0x00005ef8       0x28 c:/freescale/kds_v3/toolchain/bin/../lib/gcc/arm-none-eabi/4.8.4/../../../../arm-none-eabi/lib/armv7e-m/fpu\libg_s.a(lib_a-exit.o)
                0x00005ef8                exit
 .text.__libc_init_array
                0x00005f20       0x4c c:/freescale/kds_v3/toolchain/bin/../lib/gcc/arm-none-eabi/4.8.4/../../../../arm-none-eabi/lib/armv7e-m/fpu\libg_s.a(lib_a-init.o)
                0x00005f20                __libc_init_array
 .text.memcpy   0x00005f6c       0x12 c:/freescale/kds_v3/toolchain/bin/../lib/gcc/arm-none-eabi/4.8.4/../../../../arm-none-eabi/lib/armv7e-m/fpu\libg_s.a(lib_a-memcpy-stub.o)
                0x00005f6c                memcpy
 .text.memset   0x00005f7e       0x10 c:/freescale/kds_v3/toolchain/bin/../lib/gcc/arm-none-eabi/4.8.4/../../../../arm-none-eabi/lib/armv7e-m/fpu\libg_s.a(lib_a-memset.o)
                0x00005f7e                memset
 .text.strlen   0x00005f8e       0x10 c:/freescale/kds_v3/toolchain/bin/../lib/gcc/arm-none-eabi/4.8.4/../../../../arm-none-eabi/lib/armv7e-m/fpu\libg_s.a(lib_a-strlen.o)
                0x00005f8e                strlen
 *fill*         0x00005f9e        0x2 
 .text._exit    0x00005fa0        0x4 c:/freescale/kds_v3/toolchain/bin/../lib/gcc/arm-none-eabi/4.8.4/../../../../arm-none-eabi/lib/armv7e-m/fpu\libnosys.a(_exit.o)
                0x00005fa0                _exit
 *(.rodata)
 .rodata        0x00005fa4      0x284 ./source/freertos_dspi.o
 .rodata        0x00006228       0x18 ./freertos/tasks.o
                0x00006230                FreeRTOSDebugConfig
 .rodata        0x00006240       0x10 ./freertos/timers.o
 .rodata        0x00006250      0x114 ./drivers/fsl_clock.o
 .rodata        0x00006364       0x40 ./drivers/fsl_common.o
 .rodata        0x000063a4       0xd8 ./drivers/fsl_dspi.o
 .rodata        0x0000647c       0xe8 ./drivers/fsl_lpuart.o
 .rodata        0x00006564      0x158 ./drivers/fsl_uart.o
 *(.rodata*)
 .rodata.__func__.6695
                0x000066bc       0x18 ./drivers/fsl_clock.o
 .rodata.fllFactorTable.6866
                0x000066d4       0x10 ./drivers/fsl_clock.o
 .rodata.__func__.6881
                0x000066e4       0x14 ./drivers/fsl_clock.o
 .rodata.__func__.6932
                0x000066f8       0x14 ./drivers/fsl_clock.o
 .rodata.__func__.7084
                0x0000670c       0x14 ./drivers/fsl_clock.o
 .rodata.__func__.7154
                0x00006720       0x14 ./drivers/fsl_clock.o
 .rodata.s_dspiBases
                0x00006734        0xc ./drivers/fsl_dspi.o
 .rodata.s_dspiIRQ
                0x00006740        0x4 ./drivers/fsl_dspi.o
 .rodata.s_dspiClock
                0x00006744        0xc ./drivers/fsl_dspi.o
 .rodata.__func__.7055
                0x00006750       0x14 ./drivers/fsl_dspi.o
 .rodata.__func__.7071
                0x00006764       0x10 ./drivers/fsl_dspi.o
 .rodata.__func__.7302
                0x00006774       0x20 ./drivers/fsl_dspi.o
 .rodata.__func__.7308
                0x00006794       0x20 ./drivers/fsl_dspi.o
 .rodata.__func__.7320
                0x000067b4       0x20 ./drivers/fsl_dspi.o
 .rodata.__func__.7330
                0x000067d4       0x1c ./drivers/fsl_dspi.o
 .rodata.__func__.7341
                0x000067f0       0x1c ./drivers/fsl_dspi.o
 .rodata.__func__.7355
                0x0000680c       0x18 ./drivers/fsl_dspi.o
 .rodata.__func__.7359
                0x00006824       0x18 ./drivers/fsl_dspi.o
 .rodata.__func__.7363
                0x0000683c       0x18 ./drivers/fsl_dspi.o
 .rodata.__func__.6883
                0x00006854       0x14 ./drivers/fsl_lpuart.o
 .rodata.__func__.6921
                0x00006868        0xc ./drivers/fsl_lpuart.o
 .rodata.__func__.6945
                0x00006874       0x18 ./drivers/fsl_lpuart.o
 .rodata.__func__.6991
                0x0000688c       0x18 ./drivers/fsl_lpuart.o
 .rodata.__func__.7003
                0x000068a4       0x14 ./drivers/fsl_lpuart.o
 .rodata.s_uartBases
                0x000068b8       0x14 ./drivers/fsl_uart.o
 .rodata.s_uartClock
                0x000068cc       0x14 ./drivers/fsl_uart.o
 .rodata.__func__.6888
                0x000068e0       0x14 ./drivers/fsl_uart.o
 .rodata.__func__.6904
                0x000068f4        0xc ./drivers/fsl_uart.o
 .rodata.__func__.6922
                0x00006900       0x18 ./drivers/fsl_uart.o
 .rodata.__func__.6982
                0x00006918       0x14 ./drivers/fsl_uart.o
 .rodata.mcgConfig_BOARD_BootClockRUN
                0x0000692c        0xc ./board/clock_config.o
                0x0000692c                mcgConfig_BOARD_BootClockRUN
 .rodata.simConfig_BOARD_BootClockRUN
                0x00006938        0x8 ./board/clock_config.o
                0x00006938                simConfig_BOARD_BootClockRUN
 .rodata.oscConfig_BOARD_BootClockRUN
                0x00006940        0x8 ./board/clock_config.o
                0x00006940                oscConfig_BOARD_BootClockRUN
 .rodata.str1.1
                0x00006948        0x2 c:/freescale/kds_v3/toolchain/bin/../lib/gcc/arm-none-eabi/4.8.4/../../../../arm-none-eabi/lib/armv7e-m/fpu\libg_s.a(lib_a-impure.o)
 *fill*         0x0000694a        0x2 
 .rodata._global_impure_ptr
                0x0000694c        0x4 c:/freescale/kds_v3/toolchain/bin/../lib/gcc/arm-none-eabi/4.8.4/../../../../arm-none-eabi/lib/armv7e-m/fpu\libg_s.a(lib_a-impure.o)
                0x0000694c                _global_impure_ptr
 *(.glue_7)
 .glue_7        0x00000000        0x0 linker stubs
 *(.glue_7t)
 .glue_7t       0x00000000        0x0 linker stubs
 *(.eh_frame)
 .eh_frame      0x00006950        0x0 c:/freescale/kds_v3/toolchain/bin/../lib/gcc/arm-none-eabi/4.8.4/armv7e-m/fpu/crtbegin.o
 *(.init)
 .init          0x00006950        0x4 c:/freescale/kds_v3/toolchain/bin/../lib/gcc/arm-none-eabi/4.8.4/armv7e-m/fpu/crti.o
                0x00006950                _init
 .init          0x00006954        0x8 c:/freescale/kds_v3/toolchain/bin/../lib/gcc/arm-none-eabi/4.8.4/armv7e-m/fpu/crtn.o
 *(.fini)
 .fini          0x0000695c        0x4 c:/freescale/kds_v3/toolchain/bin/../lib/gcc/arm-none-eabi/4.8.4/armv7e-m/fpu/crti.o
                0x0000695c                _fini
 .fini          0x00006960        0x8 c:/freescale/kds_v3/toolchain/bin/../lib/gcc/arm-none-eabi/4.8.4/armv7e-m/fpu/crtn.o
                0x00006968                . = ALIGN (0x4)

.vfp11_veneer   0x00006968        0x0
 .vfp11_veneer  0x00000000        0x0 linker stubs

.v4_bx          0x00006968        0x0
 .v4_bx         0x00000000        0x0 linker stubs

.iplt           0x00006968        0x0
 .iplt          0x00000000        0x0 c:/freescale/kds_v3/toolchain/bin/../lib/gcc/arm-none-eabi/4.8.4/armv7e-m/fpu/crtbegin.o

.ARM.extab
 *(.ARM.extab* .gnu.linkonce.armextab.*)

.ARM            0x00006968        0x8
                0x00006968                __exidx_start = .
 *(.ARM.exidx*)
 .ARM.exidx     0x00006968        0x8 c:/freescale/kds_v3/toolchain/bin/../lib/gcc/arm-none-eabi/4.8.4/../../../../arm-none-eabi/lib/armv7e-m/fpu/crt0.o
                0x00006970                __exidx_end = .

.rel.dyn        0x00006970        0x0
 .rel.iplt      0x00000000        0x0 c:/freescale/kds_v3/toolchain/bin/../lib/gcc/arm-none-eabi/4.8.4/armv7e-m/fpu/crtbegin.o

.ctors          0x00006970        0x0
                0x00006970                __CTOR_LIST__ = .
 *crtbegin.o(.ctors)
 *crtbegin?.o(.ctors)
 *(EXCLUDE_FILE(*crtend.o *crtend?.o) .ctors)
 *(SORT(.ctors.*))
 *(.ctors)
                0x00006970                __CTOR_END__ = .

.dtors          0x00006970        0x0
                0x00006970                __DTOR_LIST__ = .
 *crtbegin.o(.dtors)
 *crtbegin?.o(.dtors)
 *(EXCLUDE_FILE(*crtend.o *crtend?.o) .dtors)
 *(SORT(.dtors.*))
 *(.dtors)
                0x00006970                __DTOR_END__ = .

.preinit_array  0x00006970        0x0
                0x00006970                PROVIDE (__preinit_array_start, .)
 *(.preinit_array*)
                0x00006970                PROVIDE (__preinit_array_end, .)

.init_array     0x00006970        0x4
                0x00006970                PROVIDE (__init_array_start, .)
 *(SORT(.init_array.*))
 *(.init_array*)
 .init_array    0x00006970        0x4 c:/freescale/kds_v3/toolchain/bin/../lib/gcc/arm-none-eabi/4.8.4/armv7e-m/fpu/crtbegin.o
                0x00006974                PROVIDE (__init_array_end, .)

.fini_array     0x00006974        0x4
                0x00006974                PROVIDE (__fini_array_start, .)
 *(SORT(.fini_array.*))
 *(.fini_array*)
 .fini_array    0x00006974        0x4 c:/freescale/kds_v3/toolchain/bin/../lib/gcc/arm-none-eabi/4.8.4/armv7e-m/fpu/crtbegin.o
                0x00006978                PROVIDE (__fini_array_end, .)
                0x00006978                __etext = .
                0x00006978                __DATA_ROM = .

.interrupts_ram
                0x1fff0000        0x0
                0x1fff0000                . = ALIGN (0x4)
                0x1fff0000                __VECTOR_RAM__ = .
                0x1fff0000                __interrupts_ram_start__ = .
 *(.m_interrupts_ram)
                0x1fff0000                . = (. + M_VECTOR_RAM_SIZE)
                0x1fff0000                . = ALIGN (0x4)
                0x1fff0000                __interrupts_ram_end__ = .
                0x00000000                __VECTOR_RAM = DEFINED (__ram_vector_table__)?__VECTOR_RAM__:ORIGIN (m_interrupts)
                0x00000000                __RAM_VECTOR_TABLE_SIZE_BYTES = DEFINED (__ram_vector_table__)?(__interrupts_ram_end__ - __interrupts_ram_start__):0x0

.data           0x1fff0000       0x74 load address 0x00006978
                0x1fff0000                . = ALIGN (0x4)
                0x1fff0000                __DATA_RAM = .
                0x1fff0000                __data_start__ = .
 *(.data)
 *(.data*)
 .data.SystemCoreClock
                0x1fff0000        0x4 ./startup/system_MK66F18.o
                0x1fff0000                SystemCoreClock
 .data.uxCriticalNesting
                0x1fff0004        0x4 ./freertos/portable/port.o
 .data.s_slowIrcFreq
                0x1fff0008        0x4 ./drivers/fsl_clock.o
 .data.s_fastIrcFreq
                0x1fff000c        0x4 ./drivers/fsl_clock.o
 .data.impure_data
                0x1fff0010       0x60 c:/freescale/kds_v3/toolchain/bin/../lib/gcc/arm-none-eabi/4.8.4/../../../../arm-none-eabi/lib/armv7e-m/fpu\libg_s.a(lib_a-impure.o)
 *(.jcr*)
 .jcr           0x1fff0070        0x0 c:/freescale/kds_v3/toolchain/bin/../lib/gcc/arm-none-eabi/4.8.4/armv7e-m/fpu/crtbegin.o
 .jcr           0x1fff0070        0x4 c:/freescale/kds_v3/toolchain/bin/../lib/gcc/arm-none-eabi/4.8.4/armv7e-m/fpu/crtend.o
                0x1fff0074                . = ALIGN (0x4)
                0x1fff0074                __data_end__ = .
                0x000069ec                __DATA_END = (__DATA_ROM + (__data_end__ - __data_start__))
                0x00200000                text_end = (ORIGIN (m_text) + 0x1ffbf0)
                0x00000001                ASSERT ((__DATA_END <= text_end), region m_text overflowed with text and data)

.igot.plt       0x1fff0074        0x0 load address 0x000069ec
 .igot.plt      0x00000000        0x0 c:/freescale/kds_v3/toolchain/bin/../lib/gcc/arm-none-eabi/4.8.4/armv7e-m/fpu/crtbegin.o

.bss            0x1fff0074     0x529c load address 0x000069ec
                0x1fff0074                . = ALIGN (0x4)
                0x1fff0074                __START_BSS = .
                0x1fff0074                __bss_start__ = .
 *(.bss)
 .bss           0x1fff0074       0x1c c:/freescale/kds_v3/toolchain/bin/../lib/gcc/arm-none-eabi/4.8.4/armv7e-m/fpu/crtbegin.o
 *(.bss*)
 .bss.s_debugConsole
                0x1fff0090       0x10 ./utilities/fsl_debug_console.o
 .bss.masterSendBuffer
                0x1fff00a0       0x20 ./source/freertos_dspi.o
                0x1fff00a0                masterSendBuffer
 .bss.slaveReceiveBuffer
                0x1fff00c0       0x20 ./source/freertos_dspi.o
                0x1fff00c0                slaveReceiveBuffer
 .bss.slaveTxData
                0x1fff00e0       0x20 ./source/freertos_dspi.o
                0x1fff00e0                slaveTxData
 .bss.g_s_handle
                0x1fff0100       0x2c ./source/freertos_dspi.o
                0x1fff0100                g_s_handle
 .bss.dspi_sem  0x1fff012c        0x4 ./source/freertos_dspi.o
                0x1fff012c                dspi_sem
 .bss.ucMaxSysCallPriority
                0x1fff0130        0x1 ./freertos/portable/port.o
 *fill*         0x1fff0131        0x3 
 .bss.ulMaxPRIGROUPValue
                0x1fff0134        0x4 ./freertos/portable/port.o
 .bss.ucHeap    0x1fff0138     0x5000 ./freertos/heap_4.o
 .bss.xStart    0x1fff5138        0x8 ./freertos/heap_4.o
 .bss.pxEnd     0x1fff5140        0x4 ./freertos/heap_4.o
 .bss.xFreeBytesRemaining
                0x1fff5144        0x4 ./freertos/heap_4.o
 .bss.xMinimumEverFreeBytesRemaining
                0x1fff5148        0x4 ./freertos/heap_4.o
 .bss.xBlockAllocatedBit
                0x1fff514c        0x4 ./freertos/heap_4.o
 .bss.xQueueRegistry
                0x1fff5150       0x40 ./freertos/queue.o
                0x1fff5150                xQueueRegistry
 .bss.pxCurrentTCB
                0x1fff5190        0x4 ./freertos/tasks.o
                0x1fff5190                pxCurrentTCB
 .bss.pxReadyTasksLists
                0x1fff5194       0x64 ./freertos/tasks.o
 .bss.xDelayedTaskList1
                0x1fff51f8       0x14 ./freertos/tasks.o
 .bss.xDelayedTaskList2
                0x1fff520c       0x14 ./freertos/tasks.o
 .bss.pxDelayedTaskList
                0x1fff5220        0x4 ./freertos/tasks.o
 .bss.pxOverflowDelayedTaskList
                0x1fff5224        0x4 ./freertos/tasks.o
 .bss.xPendingReadyList
                0x1fff5228       0x14 ./freertos/tasks.o
 .bss.xTasksWaitingTermination
                0x1fff523c       0x14 ./freertos/tasks.o
 .bss.uxDeletedTasksWaitingCleanUp
                0x1fff5250        0x4 ./freertos/tasks.o
 .bss.xSuspendedTaskList
                0x1fff5254       0x14 ./freertos/tasks.o
 .bss.uxCurrentNumberOfTasks
                0x1fff5268        0x4 ./freertos/tasks.o
 .bss.xTickCount
                0x1fff526c        0x4 ./freertos/tasks.o
 .bss.uxTopReadyPriority
                0x1fff5270        0x4 ./freertos/tasks.o
 .bss.xSchedulerRunning
                0x1fff5274        0x4 ./freertos/tasks.o
 .bss.uxPendedTicks
                0x1fff5278        0x4 ./freertos/tasks.o
 .bss.xYieldPending
                0x1fff527c        0x4 ./freertos/tasks.o
 .bss.xNumOfOverflows
                0x1fff5280        0x4 ./freertos/tasks.o
 .bss.uxTaskNumber
                0x1fff5284        0x4 ./freertos/tasks.o
 .bss.xNextTaskUnblockTime
                0x1fff5288        0x4 ./freertos/tasks.o
 .bss.xIdleTaskHandle
                0x1fff528c        0x4 ./freertos/tasks.o
 .bss.uxSchedulerSuspended
                0x1fff5290        0x4 ./freertos/tasks.o
 .bss.xActiveTimerList1
                0x1fff5294       0x14 ./freertos/timers.o
 .bss.xActiveTimerList2
                0x1fff52a8       0x14 ./freertos/timers.o
 .bss.pxCurrentTimerList
                0x1fff52bc        0x4 ./freertos/timers.o
 .bss.pxOverflowTimerList
                0x1fff52c0        0x4 ./freertos/timers.o
 .bss.xTimerQueue
                0x1fff52c4        0x4 ./freertos/timers.o
 .bss.xTimerTaskHandle
                0x1fff52c8        0x4 ./freertos/timers.o
 .bss.xLastTime.4862
                0x1fff52cc        0x4 ./freertos/timers.o
 .bss.s_extPllFreq
                0x1fff52d0        0x4 ./drivers/fsl_clock.o
 .bss.g_xtal0Freq
                0x1fff52d4        0x4 ./drivers/fsl_clock.o
                0x1fff52d4                g_xtal0Freq
 .bss.g_xtal32Freq
                0x1fff52d8        0x4 ./drivers/fsl_clock.o
                0x1fff52d8                g_xtal32Freq
 .bss.g_dspiHandle
                0x1fff52dc        0xc ./drivers/fsl_dspi.o
 .bss.s_dspiMasterIsr
                0x1fff52e8        0x4 ./drivers/fsl_dspi.o
 .bss.s_dspiSlaveIsr
                0x1fff52ec        0x4 ./drivers/fsl_dspi.o
 .bss.s_lpuartHandle
                0x1fff52f0        0x4 ./drivers/fsl_lpuart.o
 .bss.s_lpuartIsr
                0x1fff52f4        0x4 ./drivers/fsl_lpuart.o
 .bss.s_uartHandle
                0x1fff52f8       0x14 ./drivers/fsl_uart.o
 .bss.s_uartIsr
                0x1fff530c        0x4 ./drivers/fsl_uart.o
 *(COMMON)
                0x1fff5310                . = ALIGN (0x4)
                0x1fff5310                __bss_end__ = .
                0x1fff5310                __END_BSS = .

.heap           0x20000000      0x400
                0x20000000                . = ALIGN (0x8)
                0x20000000                __end__ = .
                0x20000000                PROVIDE (end, .)
                0x20000000                __HeapBase = .
                0x20000400                . = (. + HEAP_SIZE)
 *fill*         0x20000000      0x400 
                0x20000400                __HeapLimit = .
                0x20000400                __heap_limit = .

.stack          0x20000400      0x400
                0x20000400                . = ALIGN (0x8)
                0x20000800                . = (. + STACK_SIZE)
 *fill*         0x20000400      0x400 
                0x20030000                __StackTop = (ORIGIN (m_data_2) + 0x30000)
                0x2002fc00                __StackLimit = (__StackTop - STACK_SIZE)
                0x20030000                PROVIDE (__stack, __StackTop)

.ARM.attributes
                0x00000000       0x30
 *(.ARM.attributes)
 .ARM.attributes
                0x00000000       0x22 c:/freescale/kds_v3/toolchain/bin/../lib/gcc/arm-none-eabi/4.8.4/armv7e-m/fpu/crti.o
 .ARM.attributes
                0x00000022       0x34 c:/freescale/kds_v3/toolchain/bin/../lib/gcc/arm-none-eabi/4.8.4/armv7e-m/fpu/crtbegin.o
 .ARM.attributes
                0x00000056       0x20 c:/freescale/kds_v3/toolchain/bin/../lib/gcc/arm-none-eabi/4.8.4/../../../../arm-none-eabi/lib/armv7e-m/fpu/crt0.o
 .ARM.attributes
                0x00000076       0x39 ./utilities/fsl_debug_console.o
 .ARM.attributes
                0x000000af       0x1f ./startup/startup_MK66F18.o
 .ARM.attributes
                0x000000ce       0x39 ./startup/system_MK66F18.o
 .ARM.attributes
                0x00000107       0x39 ./source/freertos_dspi.o
 .ARM.attributes
                0x00000140       0x39 ./freertos/portable/fsl_tickless_systick.o
 .ARM.attributes
                0x00000179       0x39 ./freertos/portable/port.o
 .ARM.attributes
                0x000001b2       0x39 ./freertos/heap_4.o
 .ARM.attributes
                0x000001eb       0x39 ./freertos/list.o
 .ARM.attributes
                0x00000224       0x39 ./freertos/queue.o
 .ARM.attributes
                0x0000025d       0x39 ./freertos/tasks.o
 .ARM.attributes
                0x00000296       0x39 ./freertos/timers.o
 .ARM.attributes
                0x000002cf       0x39 ./drivers/fsl_clock.o
 .ARM.attributes
                0x00000308       0x39 ./drivers/fsl_common.o
 .ARM.attributes
                0x00000341       0x39 ./drivers/fsl_dspi.o
 .ARM.attributes
                0x0000037a       0x39 ./drivers/fsl_lpuart.o
 .ARM.attributes
                0x000003b3       0x39 ./drivers/fsl_uart.o
 .ARM.attributes
                0x000003ec       0x39 ./board/board.o
 .ARM.attributes
                0x00000425       0x39 ./board/clock_config.o
 .ARM.attributes
                0x0000045e       0x39 ./board/pin_mux.o
 .ARM.attributes
                0x00000497       0x34 c:/freescale/kds_v3/toolchain/bin/../lib/gcc/arm-none-eabi/4.8.4/../../../../arm-none-eabi/lib/armv7e-m/fpu\libg_s.a(lib_a-exit.o)
 .ARM.attributes
                0x000004cb       0x34 c:/freescale/kds_v3/toolchain/bin/../lib/gcc/arm-none-eabi/4.8.4/../../../../arm-none-eabi/lib/armv7e-m/fpu\libg_s.a(lib_a-impure.o)
 .ARM.attributes
                0x000004ff       0x34 c:/freescale/kds_v3/toolchain/bin/../lib/gcc/arm-none-eabi/4.8.4/../../../../arm-none-eabi/lib/armv7e-m/fpu\libg_s.a(lib_a-init.o)
 .ARM.attributes
                0x00000533       0x34 c:/freescale/kds_v3/toolchain/bin/../lib/gcc/arm-none-eabi/4.8.4/../../../../arm-none-eabi/lib/armv7e-m/fpu\libg_s.a(lib_a-memcpy-stub.o)
 .ARM.attributes
                0x00000567       0x34 c:/freescale/kds_v3/toolchain/bin/../lib/gcc/arm-none-eabi/4.8.4/../../../../arm-none-eabi/lib/armv7e-m/fpu\libg_s.a(lib_a-memset.o)
 .ARM.attributes
                0x0000059b       0x34 c:/freescale/kds_v3/toolchain/bin/../lib/gcc/arm-none-eabi/4.8.4/../../../../arm-none-eabi/lib/armv7e-m/fpu\libg_s.a(lib_a-strlen.o)
 .ARM.attributes
                0x000005cf       0x34 c:/freescale/kds_v3/toolchain/bin/../lib/gcc/arm-none-eabi/4.8.4/../../../../arm-none-eabi/lib/armv7e-m/fpu\libnosys.a(_exit.o)
 .ARM.attributes
                0x00000603       0x34 c:/freescale/kds_v3/toolchain/bin/../lib/gcc/arm-none-eabi/4.8.4/armv7e-m/fpu/crtend.o
 .ARM.attributes
                0x00000637       0x22 c:/freescale/kds_v3/toolchain/bin/../lib/gcc/arm-none-eabi/4.8.4/armv7e-m/fpu/crtn.o
                0x00000001                ASSERT ((__StackLimit >= __HeapLimit), region m_data_2 overflowed with stack and heap)
OUTPUT(freertos_dspi_frdmk66f.elf elf32-littlearm)

.debug_info     0x00000000    0x11021
 .debug_info    0x00000000     0x1030 ./utilities/fsl_debug_console.o
 .debug_info    0x00001030       0xc6 ./startup/startup_MK66F18.o
 .debug_info    0x000010f6      0x985 ./startup/system_MK66F18.o
 .debug_info    0x00001a7b      0xee9 ./source/freertos_dspi.o
 .debug_info    0x00002964       0xad ./freertos/portable/fsl_tickless_systick.o
 .debug_info    0x00002a11      0x4bf ./freertos/portable/port.o
 .debug_info    0x00002ed0      0x3b5 ./freertos/heap_4.o
 .debug_info    0x00003285      0x292 ./freertos/list.o
 .debug_info    0x00003517     0x13de ./freertos/queue.o
 .debug_info    0x000048f5     0x1e83 ./freertos/tasks.o
 .debug_info    0x00006778      0xd0e ./freertos/timers.o
 .debug_info    0x00007486     0x2691 ./drivers/fsl_clock.o
 .debug_info    0x00009b17      0x716 ./drivers/fsl_common.o
 .debug_info    0x0000a22d     0x23c3 ./drivers/fsl_dspi.o
 .debug_info    0x0000c5f0     0x1984 ./drivers/fsl_lpuart.o
 .debug_info    0x0000df74     0x1b9d ./drivers/fsl_uart.o
 .debug_info    0x0000fb11      0x36c ./board/board.o
 .debug_info    0x0000fe7d      0xad4 ./board/clock_config.o
 .debug_info    0x00010951      0x6d0 ./board/pin_mux.o

.debug_abbrev   0x00000000     0x235b
 .debug_abbrev  0x00000000      0x294 ./utilities/fsl_debug_console.o
 .debug_abbrev  0x00000294       0x14 ./startup/startup_MK66F18.o
 .debug_abbrev  0x000002a8      0x117 ./startup/system_MK66F18.o
 .debug_abbrev  0x000003bf      0x245 ./source/freertos_dspi.o
 .debug_abbrev  0x00000604       0x60 ./freertos/portable/fsl_tickless_systick.o
 .debug_abbrev  0x00000664      0x209 ./freertos/portable/port.o
 .debug_abbrev  0x0000086d      0x1b9 ./freertos/heap_4.o
 .debug_abbrev  0x00000a26       0xbe ./freertos/list.o
 .debug_abbrev  0x00000ae4      0x224 ./freertos/queue.o
 .debug_abbrev  0x00000d08      0x2c9 ./freertos/tasks.o
 .debug_abbrev  0x00000fd1      0x1e1 ./freertos/timers.o
 .debug_abbrev  0x000011b2      0x2fe ./drivers/fsl_clock.o
 .debug_abbrev  0x000014b0      0x230 ./drivers/fsl_common.o
 .debug_abbrev  0x000016e0      0x2d4 ./drivers/fsl_dspi.o
 .debug_abbrev  0x000019b4      0x28c ./drivers/fsl_lpuart.o
 .debug_abbrev  0x00001c40      0x2d6 ./drivers/fsl_uart.o
 .debug_abbrev  0x00001f16       0xfd ./board/board.o
 .debug_abbrev  0x00002013      0x1e5 ./board/clock_config.o
 .debug_abbrev  0x000021f8      0x163 ./board/pin_mux.o

.debug_aranges  0x00000000      0xd58
 .debug_aranges
                0x00000000       0xa0 ./utilities/fsl_debug_console.o
 .debug_aranges
                0x000000a0       0x20 ./startup/startup_MK66F18.o
 .debug_aranges
                0x000000c0       0x28 ./startup/system_MK66F18.o
 .debug_aranges
                0x000000e8       0x38 ./source/freertos_dspi.o
 .debug_aranges
                0x00000120       0x20 ./freertos/portable/fsl_tickless_systick.o
 .debug_aranges
                0x00000140       0x78 ./freertos/portable/port.o
 .debug_aranges
                0x000001b8       0x50 ./freertos/heap_4.o
 .debug_aranges
                0x00000208       0x40 ./freertos/list.o
 .debug_aranges
                0x00000248      0x118 ./freertos/queue.o
 .debug_aranges
                0x00000360      0x1e8 ./freertos/tasks.o
 .debug_aranges
                0x00000548       0xc8 ./freertos/timers.o
 .debug_aranges
                0x00000610      0x248 ./drivers/fsl_clock.o
 .debug_aranges
                0x00000858       0x38 ./drivers/fsl_common.o
 .debug_aranges
                0x00000890      0x1a8 ./drivers/fsl_dspi.o
 .debug_aranges
                0x00000a38      0x118 ./drivers/fsl_lpuart.o
 .debug_aranges
                0x00000b50      0x160 ./drivers/fsl_uart.o
 .debug_aranges
                0x00000cb0       0x20 ./board/board.o
 .debug_aranges
                0x00000cd0       0x58 ./board/clock_config.o
 .debug_aranges
                0x00000d28       0x30 ./board/pin_mux.o

.debug_ranges   0x00000000      0xc18
 .debug_ranges  0x00000000       0x90 ./utilities/fsl_debug_console.o
 .debug_ranges  0x00000090       0x18 ./startup/system_MK66F18.o
 .debug_ranges  0x000000a8       0x28 ./source/freertos_dspi.o
 .debug_ranges  0x000000d0       0x10 ./freertos/portable/fsl_tickless_systick.o
 .debug_ranges  0x000000e0       0x68 ./freertos/portable/port.o
 .debug_ranges  0x00000148       0x40 ./freertos/heap_4.o
 .debug_ranges  0x00000188       0x30 ./freertos/list.o
 .debug_ranges  0x000001b8      0x108 ./freertos/queue.o
 .debug_ranges  0x000002c0      0x1d8 ./freertos/tasks.o
 .debug_ranges  0x00000498       0xb8 ./freertos/timers.o
 .debug_ranges  0x00000550      0x238 ./drivers/fsl_clock.o
 .debug_ranges  0x00000788       0x28 ./drivers/fsl_common.o
 .debug_ranges  0x000007b0      0x198 ./drivers/fsl_dspi.o
 .debug_ranges  0x00000948      0x108 ./drivers/fsl_lpuart.o
 .debug_ranges  0x00000a50      0x150 ./drivers/fsl_uart.o
 .debug_ranges  0x00000ba0       0x10 ./board/board.o
 .debug_ranges  0x00000bb0       0x48 ./board/clock_config.o
 .debug_ranges  0x00000bf8       0x20 ./board/pin_mux.o

.debug_line     0x00000000     0x5c73
 .debug_line    0x00000000      0x5f9 ./utilities/fsl_debug_console.o
 .debug_line    0x000005f9      0x1b3 ./startup/startup_MK66F18.o
 .debug_line    0x000007ac      0x172 ./startup/system_MK66F18.o
 .debug_line    0x0000091e      0x315 ./source/freertos_dspi.o
 .debug_line    0x00000c33      0x143 ./freertos/portable/fsl_tickless_systick.o
 .debug_line    0x00000d76      0x340 ./freertos/portable/port.o
 .debug_line    0x000010b6      0x27f ./freertos/heap_4.o
 .debug_line    0x00001335      0x1cc ./freertos/list.o
 .debug_line    0x00001501      0x95f ./freertos/queue.o
 .debug_line    0x00001e60      0xe12 ./freertos/tasks.o
 .debug_line    0x00002c72      0x51e ./freertos/timers.o
 .debug_line    0x00003190      0xae6 ./drivers/fsl_clock.o
 .debug_line    0x00003c76      0x213 ./drivers/fsl_common.o
 .debug_line    0x00003e89      0x9e9 ./drivers/fsl_dspi.o
 .debug_line    0x00004872      0x691 ./drivers/fsl_lpuart.o
 .debug_line    0x00004f03      0x806 ./drivers/fsl_uart.o
 .debug_line    0x00005709      0x16f ./board/board.o
 .debug_line    0x00005878      0x245 ./board/clock_config.o
 .debug_line    0x00005abd      0x1b6 ./board/pin_mux.o

.debug_str      0x00000000     0x79ea
 .debug_str     0x00000000      0xe35 ./utilities/fsl_debug_console.o
                                0xf61 (size before relaxing)
 .debug_str     0x00000e35      0x4b0 ./startup/system_MK66F18.o
                                0x70c (size before relaxing)
 .debug_str     0x000012e5      0xc54 ./source/freertos_dspi.o
                               0x147a (size before relaxing)
 .debug_str     0x00001f39       0x82 ./freertos/portable/fsl_tickless_systick.o
                                0x299 (size before relaxing)
 .debug_str     0x00001fbb      0x266 ./freertos/portable/port.o
                                0x48e (size before relaxing)
 .debug_str     0x00002221      0x214 ./freertos/heap_4.o
                                0x43e (size before relaxing)
 .debug_str     0x00002435      0x155 ./freertos/list.o
                                0x37e (size before relaxing)
 .debug_str     0x0000258a      0x5ac ./freertos/queue.o
                                0x8fe (size before relaxing)
 .debug_str     0x00002b36      0xc46 ./freertos/tasks.o
                               0x10a6 (size before relaxing)
 .debug_str     0x0000377c      0x50d ./freertos/timers.o
                                0x87a (size before relaxing)
 .debug_str     0x00003c89     0x171e ./drivers/fsl_clock.o
                               0x2273 (size before relaxing)
 .debug_str     0x000053a7      0x14b ./drivers/fsl_common.o
                                0xa04 (size before relaxing)
 .debug_str     0x000054f2      0xdef ./drivers/fsl_dspi.o
                               0x23b6 (size before relaxing)
 .debug_str     0x000062e1      0x9f7 ./drivers/fsl_lpuart.o
                               0x1d4e (size before relaxing)
 .debug_str     0x00006cd8      0x74d ./drivers/fsl_uart.o
                               0x1f14 (size before relaxing)
 .debug_str     0x00007425       0x7b ./board/board.o
                                0x3a7 (size before relaxing)
 .debug_str     0x000074a0      0x3a2 ./board/clock_config.o
                                0xf4c (size before relaxing)
 .debug_str     0x00007842      0x1a8 ./board/pin_mux.o
                                0x7f7 (size before relaxing)

.comment        0x00000000       0x70
 .comment       0x00000000       0x70 ./utilities/fsl_debug_console.o
                                 0x71 (size before relaxing)
 .comment       0x00000000       0x71 ./startup/system_MK66F18.o
 .comment       0x00000000       0x71 ./source/freertos_dspi.o
 .comment       0x00000000       0x71 ./freertos/portable/fsl_tickless_systick.o
 .comment       0x00000000       0x71 ./freertos/portable/port.o
 .comment       0x00000000       0x71 ./freertos/heap_4.o
 .comment       0x00000000       0x71 ./freertos/list.o
 .comment       0x00000000       0x71 ./freertos/queue.o
 .comment       0x00000000       0x71 ./freertos/tasks.o
 .comment       0x00000000       0x71 ./freertos/timers.o
 .comment       0x00000000       0x71 ./drivers/fsl_clock.o
 .comment       0x00000000       0x71 ./drivers/fsl_common.o
 .comment       0x00000000       0x71 ./drivers/fsl_dspi.o
 .comment       0x00000000       0x71 ./drivers/fsl_lpuart.o
 .comment       0x00000000       0x71 ./drivers/fsl_uart.o
 .comment       0x00000000       0x71 ./board/board.o
 .comment       0x00000000       0x71 ./board/clock_config.o
 .comment       0x00000000       0x71 ./board/pin_mux.o

.debug_frame    0x00000000     0x2d08
 .debug_frame   0x00000000      0x224 ./utilities/fsl_debug_console.o
 .debug_frame   0x00000224       0x44 ./startup/system_MK66F18.o
 .debug_frame   0x00000268       0x8c ./source/freertos_dspi.o
 .debug_frame   0x000002f4       0x28 ./freertos/portable/fsl_tickless_systick.o
 .debug_frame   0x0000031c      0x138 ./freertos/portable/port.o
 .debug_frame   0x00000454       0xd0 ./freertos/heap_4.o
 .debug_frame   0x00000524       0x9c ./freertos/list.o
 .debug_frame   0x000005c0      0x3ec ./freertos/queue.o
 .debug_frame   0x000009ac      0x6f8 ./freertos/tasks.o
 .debug_frame   0x000010a4      0x2b8 ./freertos/timers.o
 .debug_frame   0x0000135c      0x7f4 ./drivers/fsl_clock.o
 .debug_frame   0x00001b50       0x88 ./drivers/fsl_common.o
 .debug_frame   0x00001bd8      0x604 ./drivers/fsl_dspi.o
 .debug_frame   0x000021dc      0x3ec ./drivers/fsl_lpuart.o
 .debug_frame   0x000025c8      0x4e4 ./drivers/fsl_uart.o
 .debug_frame   0x00002aac       0x30 ./board/board.o
 .debug_frame   0x00002adc       0xec ./board/clock_config.o
 .debug_frame   0x00002bc8       0x64 ./board/pin_mux.o
 .debug_frame   0x00002c2c       0x28 c:/freescale/kds_v3/toolchain/bin/../lib/gcc/arm-none-eabi/4.8.4/../../../../arm-none-eabi/lib/armv7e-m/fpu\libg_s.a(lib_a-exit.o)
 .debug_frame   0x00002c54       0x2c c:/freescale/kds_v3/toolchain/bin/../lib/gcc/arm-none-eabi/4.8.4/../../../../arm-none-eabi/lib/armv7e-m/fpu\libg_s.a(lib_a-init.o)
 .debug_frame   0x00002c80       0x28 c:/freescale/kds_v3/toolchain/bin/../lib/gcc/arm-none-eabi/4.8.4/../../../../arm-none-eabi/lib/armv7e-m/fpu\libg_s.a(lib_a-memcpy-stub.o)
 .debug_frame   0x00002ca8       0x20 c:/freescale/kds_v3/toolchain/bin/../lib/gcc/arm-none-eabi/4.8.4/../../../../arm-none-eabi/lib/armv7e-m/fpu\libg_s.a(lib_a-memset.o)
 .debug_frame   0x00002cc8       0x20 c:/freescale/kds_v3/toolchain/bin/../lib/gcc/arm-none-eabi/4.8.4/../../../../arm-none-eabi/lib/armv7e-m/fpu\libg_s.a(lib_a-strlen.o)
 .debug_frame   0x00002ce8       0x20 c:/freescale/kds_v3/toolchain/bin/../lib/gcc/arm-none-eabi/4.8.4/../../../../arm-none-eabi/lib/armv7e-m/fpu\libnosys.a(_exit.o)
